{
  "_format": "hh-sol-artifact-1",
  "contractName": "MyNft",
  "sourceName": "contracts/MyNft.sol",
  "abi": [
    {
      "inputs": [],
      "stateMutability": "nonpayable",
      "type": "constructor"
    },
    {
      "anonymous": false,
      "inputs": [
        {
          "indexed": true,
          "internalType": "address",
          "name": "owner",
          "type": "address"
        },
        {
          "indexed": true,
          "internalType": "address",
          "name": "approved",
          "type": "address"
        },
        {
          "indexed": true,
          "internalType": "uint256",
          "name": "tokenId",
          "type": "uint256"
        }
      ],
      "name": "Approval",
      "type": "event"
    },
    {
      "anonymous": false,
      "inputs": [
        {
          "indexed": true,
          "internalType": "address",
          "name": "owner",
          "type": "address"
        },
        {
          "indexed": true,
          "internalType": "address",
          "name": "operator",
          "type": "address"
        },
        {
          "indexed": false,
          "internalType": "bool",
          "name": "approved",
          "type": "bool"
        }
      ],
      "name": "ApprovalForAll",
      "type": "event"
    },
    {
      "anonymous": false,
      "inputs": [
        {
          "indexed": true,
          "internalType": "address",
          "name": "previousOwner",
          "type": "address"
        },
        {
          "indexed": true,
          "internalType": "address",
          "name": "newOwner",
          "type": "address"
        }
      ],
      "name": "OwnershipTransferred",
      "type": "event"
    },
    {
      "anonymous": false,
      "inputs": [
        {
          "indexed": false,
          "internalType": "address",
          "name": "account",
          "type": "address"
        }
      ],
      "name": "Paused",
      "type": "event"
    },
    {
      "anonymous": false,
      "inputs": [
        {
          "indexed": true,
          "internalType": "address",
          "name": "from",
          "type": "address"
        },
        {
          "indexed": true,
          "internalType": "address",
          "name": "to",
          "type": "address"
        },
        {
          "indexed": true,
          "internalType": "uint256",
          "name": "tokenId",
          "type": "uint256"
        }
      ],
      "name": "Transfer",
      "type": "event"
    },
    {
      "anonymous": false,
      "inputs": [
        {
          "indexed": false,
          "internalType": "address",
          "name": "account",
          "type": "address"
        }
      ],
      "name": "Unpaused",
      "type": "event"
    },
    {
      "inputs": [
        {
          "internalType": "address",
          "name": "_addWhitelist",
          "type": "address"
        }
      ],
      "name": "addWhiteList",
      "outputs": [
        {
          "internalType": "bool",
          "name": "",
          "type": "bool"
        }
      ],
      "stateMutability": "tx",
      "type": "function"
    },
    {
      "inputs": [
        {
          "internalType": "address",
          "name": "to",
          "type": "address"
        },
        {
          "internalType": "uint256",
          "name": "tokenId",
          "type": "uint256"
        }
      ],
      "name": "approve",
      "outputs": [],
      "stateMutability": "tx",
      "type": "function"
    },
    {
      "inputs": [
        {
          "internalType": "address",
          "name": "owner",
          "type": "address"
        }
      ],
      "name": "balanceOf",
      "outputs": [
        {
          "internalType": "uint256",
          "name": "",
          "type": "uint256"
        }
      ],
      "stateMutability": "view",
      "type": "function"
    },
    {
      "inputs": [
        {
          "internalType": "uint256",
          "name": "tokenId",
          "type": "uint256"
        }
      ],
      "name": "burn",
      "outputs": [],
      "stateMutability": "tx",
      "type": "function"
    },
    {
      "inputs": [
        {
          "internalType": "address",
          "name": "_delWhiteList",
          "type": "address"
        }
      ],
      "name": "delWhiteList",
      "outputs": [
        {
          "internalType": "bool",
          "name": "",
          "type": "bool"
        }
      ],
      "stateMutability": "nonpayable",
      "type": "function"
    },
    {
      "inputs": [
        {
          "internalType": "uint256",
          "name": "tokenId",
          "type": "uint256"
        }
      ],
      "name": "getApproved",
      "outputs": [
        {
          "internalType": "address",
          "name": "",
          "type": "address"
        }
      ],
      "stateMutability": "view",
      "type": "function"
    },
    {
      "inputs": [
        {
          "internalType": "uint256",
          "name": "_index",
          "type": "uint256"
        }
      ],
      "name": "getWhiteList",
      "outputs": [
        {
          "internalType": "address",
          "name": "",
          "type": "address"
        }
      ],
      "stateMutability": "view",
      "type": "function"
    },
    {
      "inputs": [],
      "name": "getWhiteListLength",
      "outputs": [
        {
          "internalType": "uint256",
          "name": "",
          "type": "uint256"
        }
      ],
      "stateMutability": "view",
      "type": "function"
    },
    {
      "inputs": [
        {
          "internalType": "address",
          "name": "account",
          "type": "address"
        }
      ],
      "name": "inWhiteList",
      "outputs": [
        {
          "internalType": "bool",
          "name": "",
          "type": "bool"
        }
      ],
      "stateMutability": "view",
      "type": "function"
    },
    {
      "inputs": [
        {
          "internalType": "address",
          "name": "owner",
          "type": "address"
        },
        {
          "internalType": "address",
          "name": "operator",
          "type": "address"
        }
      ],
      "name": "isApprovedForAll",
      "outputs": [
        {
          "internalType": "bool",
          "name": "",
          "type": "bool"
        }
      ],
      "stateMutability": "view",
      "type": "function"
    },
    {
      "inputs": [],
      "name": "name",
      "outputs": [
        {
          "internalType": "string",
          "name": "",
          "type": "string"
        }
      ],
      "stateMutability": "view",
      "type": "function"
    },
    {
      "inputs": [],
      "name": "owner",
      "outputs": [
        {
          "internalType": "address",
          "name": "",
          "type": "address"
        }
      ],
      "stateMutability": "view",
      "type": "function"
    },
    {
      "inputs": [
        {
          "internalType": "uint256",
          "name": "tokenId",
          "type": "uint256"
        }
      ],
      "name": "ownerOf",
      "outputs": [
        {
          "internalType": "address",
          "name": "",
          "type": "address"
        }
      ],
      "stateMutability": "view",
      "type": "function"
    },
    {
      "inputs": [],
      "name": "pause",
      "outputs": [],
      "stateMutability": "nonpayable",
      "type": "function"
    },
    {
      "inputs": [],
      "name": "paused",
      "outputs": [
        {
          "internalType": "bool",
          "name": "",
          "type": "bool"
        }
      ],
      "stateMutability": "view",
      "type": "function"
    },
    {
      "inputs": [],
      "name": "renounceOwnership",
      "outputs": [],
      "stateMutability": "nonpayable",
      "type": "function"
    },
    {
      "inputs": [
        {
          "internalType": "address",
          "name": "to",
          "type": "address"
        },
        {
          "internalType": "string",
          "name": "uri",
          "type": "string"
        }
      ],
      "name": "safeMint",
      "outputs": [],
      "stateMutability": "tx",
      "type": "function"
    },
    {
      "inputs": [
        {
          "internalType": "address",
          "name": "from",
          "type": "address"
        },
        {
          "internalType": "address",
          "name": "to",
          "type": "address"
        },
        {
          "internalType": "uint256",
          "name": "tokenId",
          "type": "uint256"
        }
      ],
      "name": "safeTransfer",
      "outputs": [],
      "stateMutability": "tx",
      "type": "function"
    },
    {
      "inputs": [
        {
          "internalType": "address",
          "name": "from",
          "type": "address"
        },
        {
          "internalType": "address",
          "name": "to",
          "type": "address"
        },
        {
          "internalType": "uint256",
          "name": "tokenId",
          "type": "uint256"
        }
      ],
      "name": "safeTransferFrom",
      "outputs": [],
      "stateMutability": "nonpayable",
      "type": "function"
    },
    {
      "inputs": [
        {
          "internalType": "address",
          "name": "from",
          "type": "address"
        },
        {
          "internalType": "address",
          "name": "to",
          "type": "address"
        },
        {
          "internalType": "uint256",
          "name": "tokenId",
          "type": "uint256"
        },
        {
          "internalType": "bytes",
          "name": "data",
          "type": "bytes"
        }
      ],
      "name": "safeTransferFrom",
      "outputs": [],
      "stateMutability": "tx",
      "type": "function"
    },
    {
      "inputs": [
        {
          "internalType": "address",
          "name": "operator",
          "type": "address"
        },
        {
          "internalType": "bool",
          "name": "approved",
          "type": "bool"
        }
      ],
      "name": "setApprovalForAll",
      "outputs": [],
      "stateMutability": "tx",
      "type": "function"
    },
    {
      "inputs": [
        {
          "internalType": "bytes4",
          "name": "interfaceId",
          "type": "bytes4"
        }
      ],
      "name": "supportsInterface",
      "outputs": [
        {
          "internalType": "bool",
          "name": "",
          "type": "bool"
        }
      ],
      "stateMutability": "view",
      "type": "function"
    },
    {
      "inputs": [],
      "name": "symbol",
      "outputs": [
        {
          "internalType": "string",
          "name": "",
          "type": "string"
        }
      ],
      "stateMutability": "view",
      "type": "function"
    },
    {
      "inputs": [
        {
          "internalType": "uint256",
          "name": "tokenId",
          "type": "uint256"
        }
      ],
      "name": "tokenURI",
      "outputs": [
        {
          "internalType": "string",
          "name": "",
          "type": "string"
        }
      ],
      "stateMutability": "view",
      "type": "function"
    },
    {
      "inputs": [
        {
          "internalType": "address",
          "name": "from",
          "type": "address"
        },
        {
          "internalType": "address",
          "name": "to",
          "type": "address"
        },
        {
          "internalType": "uint256",
          "name": "tokenId",
          "type": "uint256"
        }
      ],
      "name": "transferFrom",
      "outputs": [],
      "stateMutability": "nonpayable",
      "type": "function"
    },
    {
      "inputs": [
        {
          "internalType": "address",
          "name": "newOwner",
          "type": "address"
        }
      ],
      "name": "transferOwnership",
      "outputs": [],
      "stateMutability": "nonpayable",
      "type": "function"
    },
    {
      "inputs": [],
      "name": "unpause",
      "outputs": [],
      "stateMutability": "nonpayable",
      "type": "function"
    }
  ],
  "bytecode": "0x60806040523480156200001157600080fd5b50604080518082018252600781526626bcaa37b5b2b760c91b6020808301918252835180850190945260038452624d544b60e81b9084015281519192916200005c9160009162000250565b5080516200007290600190602084019062000250565b50506007805460ff19169055506200008a336200009c565b6200009533620000f6565b5062000333565b600780546001600160a01b03838116610100818102610100600160a81b031985161790945560405193909204169182907f8be0079c531659141344cd1fd0a4f28419497f9722a3daafe3b4186f6b6457e090600090a35050565b6000620001026200017c565b6001600160a01b0382166200015e5760405162461bcd60e51b815260206004820152601e60248201527f5f6164644d696e74657220697320746865207a65726f2061646472657373000060448201526064015b60405180910390fd5b62000176600983620001e060201b62000a691760201c565b92915050565b6007546001600160a01b03610100909104163314620001de5760405162461bcd60e51b815260206004820181905260248201527f4f776e61626c653a2063616c6c6572206973206e6f7420746865206f776e6572604482015260640162000155565b565b6000620001f7836001600160a01b038416620001fe565b9392505050565b6000818152600183016020526040812054620002475750815460018181018455600084815260208082209093018490558454848252828601909352604090209190915562000176565b50600062000176565b8280546200025e90620002f6565b90600052602060002090601f016020900481019282620002825760008555620002cd565b82601f106200029d57805160ff1916838001178555620002cd565b82800160010185558215620002cd579182015b82811115620002cd578251825591602001919060010190620002b0565b50620002db929150620002df565b5090565b5b80821115620002db5760008155600101620002e0565b600181811c908216806200030b57607f821691505b602082108114156200032d57634e487b7160e01b600052602260045260246000fd5b50919050565b611f2280620003436000396000f3fe608060405234801561001057600080fd5b50600436106101a95760003560e01c8063715018a6116100f9578063bb72ce4211610097578063d204c45e11610071578063d204c45e14610353578063e7cd4a0414610366578063e985e9c514610379578063f2fde38b1461038c57600080fd5b8063bb72ce4214610338578063c87b56dd14610340578063d1660f991461024657600080fd5b806395d89b41116100d357806395d89b41146102f7578063a22cb465146102ff578063aa44a6b514610312578063b88d4fde1461032557600080fd5b8063715018a6146102d15780638456cb59146102d95780638da5cb5b146102e157600080fd5b806342842e0e11610166578063605e5ee111610140578063605e5ee1146102775780636352211e1461028a57806369e0e3461461029d57806370a08231146102b057600080fd5b806342842e0e1461024657806342966c68146102595780635c975abb1461026c57600080fd5b806301ffc9a7146101ae57806306fdde03146101d6578063081812fc146101eb578063095ea7b31461021657806323b872dd1461022b5780633f4ba83a1461023e575b600080fd5b6101c16101bc366004611975565b61039f565b60405190151581526020015b60405180910390f35b6101de6103f1565b6040516101cd91906119ea565b6101fe6101f93660046119fd565b610483565b6040516001600160a01b0390911681526020016101cd565b610229610224366004611a2d565b6104aa565b005b610229610239366004611a57565b6105c5565b6102296105f7565b610229610254366004611a57565b610626565b6102296102673660046119fd565b610641565b60075460ff166101c1565b6101c1610285366004611a93565b6106dd565b6101fe6102983660046119fd565b61074d565b6101c16102ab366004611a93565b6107ad565b6102c36102be366004611a93565b6107ba565b6040519081526020016101cd565b610229610840565b610229610852565b60075461010090046001600160a01b03166101fe565b6101de61087f565b61022961030d366004611aae565b61088e565b6101fe6103203660046119fd565b61089d565b610229610333366004611b76565b6108b2565b6102c36108ea565b6101de61034e3660046119fd565b6108fb565b610229610361366004611bf2565b610906565b6101c1610374366004611a93565b61095a565b6101c1610387366004611c54565b6109c5565b61022961039a366004611a93565b6109f3565b60006001600160e01b031982166380ac58cd60e01b14806103d057506001600160e01b03198216635b5e139f60e01b145b806103eb57506301ffc9a760e01b6001600160e01b03198316145b92915050565b60606000805461040090611c87565b80601f016020809104026020016040519081016040528092919081815260200182805461042c90611c87565b80156104795780601f1061044e57610100808354040283529160200191610479565b820191906000526020600020905b81548152906001019060200180831161045c57829003601f168201915b5050505050905090565b600061048e82610a85565b506000908152600460205260409020546001600160a01b031690565b60006104b58261074d565b9050806001600160a01b0316836001600160a01b031614156105285760405162461bcd60e51b815260206004820152602160248201527f4552433732313a20617070726f76616c20746f2063757272656e74206f776e656044820152603960f91b60648201526084015b60405180910390fd5b336001600160a01b0382161480610544575061054481336109c5565b6105b65760405162461bcd60e51b815260206004820152603e60248201527f4552433732313a20617070726f76652063616c6c6572206973206e6f7420746f60448201527f6b656e206f776e6572206e6f7220617070726f76656420666f7220616c6c0000606482015260840161051f565b6105c08383610ae4565b505050565b6105d0335b82610b52565b6105ec5760405162461bcd60e51b815260040161051f90611cc2565b6105c0838383610bb1565b610600336107ad565b61061c5760405162461bcd60e51b815260040161051f90611d10565b610624610d58565b565b6105c0838383604051806020016040528060008152506108b2565b6007546001600160a01b03610100909104163314156106665761066381610daa565b50565b61066f336105ca565b6106d45760405162461bcd60e51b815260206004820152603060248201527f4552433732314275726e61626c653a2063616c6c6572206973206e6f74206f7760448201526f1b995c881b9bdc88185c1c1c9bdd995960821b606482015260840161051f565b61066381610daa565b60006106e7610db3565b6001600160a01b03821661073d5760405162461bcd60e51b815260206004820152601e60248201527f5f64656c4d696e74657220697320746865207a65726f20616464726573730000604482015260640161051f565b6103eb600983610e13565b919050565b6000818152600260205260408120546001600160a01b0316806103eb5760405162461bcd60e51b8152602060048201526018602482015277115490cdcc8c4e881a5b9d985b1a59081d1bdad95b88125160421b604482015260640161051f565b60006103eb600983610e28565b60006001600160a01b0382166108245760405162461bcd60e51b815260206004820152602960248201527f4552433732313a2061646472657373207a65726f206973206e6f7420612076616044820152683634b21037bbb732b960b91b606482015260840161051f565b506001600160a01b031660009081526003602052604090205490565b610848610db3565b6106246000610e4a565b61085b336107ad565b6108775760405162461bcd60e51b815260040161051f90611d10565b610624610ea4565b60606001805461040090611c87565b610899338383610ee1565b5050565b60006108a7610db3565b6103eb600983610fb0565b6108bc3383610b52565b6108d85760405162461bcd60e51b815260040161051f90611cc2565b6108e484848484610fbc565b50505050565b60006108f66009610fef565b905090565b60606103eb82610ff9565b61090f336107ad565b61092b5760405162461bcd60e51b815260040161051f90611d10565b600061093660085490565b9050610946600880546001019055565b6109508382611102565b6105c0818361111c565b6000610964610db3565b6001600160a01b0382166109ba5760405162461bcd60e51b815260206004820152601e60248201527f5f6164644d696e74657220697320746865207a65726f20616464726573730000604482015260640161051f565b6103eb600983610a69565b6001600160a01b03918216600090815260056020908152604080832093909416825291909152205460ff1690565b6109fb610db3565b6001600160a01b038116610a605760405162461bcd60e51b815260206004820152602660248201527f4f776e61626c653a206e6577206f776e657220697320746865207a65726f206160448201526564647265737360d01b606482015260840161051f565b61066381610e4a565b6000610a7e836001600160a01b0384166111b6565b9392505050565b6000818152600260205260409020546001600160a01b03166106635760405162461bcd60e51b8152602060048201526018602482015277115490cdcc8c4e881a5b9d985b1a59081d1bdad95b88125160421b604482015260640161051f565b600081815260046020526040902080546001600160a01b0319166001600160a01b0384169081179091558190610b198261074d565b6001600160a01b03167f8c5be1e5ebec7d5bd14f71427d1e84f3dd0314c0f7b2291e5b200ac8c7c3b92560405160405180910390a45050565b600080610b5e8361074d565b9050806001600160a01b0316846001600160a01b03161480610b855750610b8581856109c5565b80610ba95750836001600160a01b0316610b9e84610483565b6001600160a01b0316145b949350505050565b826001600160a01b0316610bc48261074d565b6001600160a01b031614610c285760405162461bcd60e51b815260206004820152602560248201527f4552433732313a207472616e736665722066726f6d20696e636f72726563742060448201526437bbb732b960d91b606482015260840161051f565b6001600160a01b038216610c8a5760405162461bcd60e51b8152602060048201526024808201527f4552433732313a207472616e7366657220746f20746865207a65726f206164646044820152637265737360e01b606482015260840161051f565b610c95838383611205565b610ca0600082610ae4565b6001600160a01b0383166000908152600360205260408120805460019290610cc9908490611d5d565b90915550506001600160a01b0382166000908152600360205260408120805460019290610cf7908490611d74565b909155505060008181526002602052604080822080546001600160a01b0319166001600160a01b0386811691821790925591518493918716917fddf252ad1be2c89b69c2b068fc378daa952ba7f163c4a11628f55a4df523b3ef91a4505050565b610d6061120d565b6007805460ff191690557f5db9ee0a495bf2e6ff9c91a7834c1ba4fdd244a5e8aa4e537bd38aeae4b073aa335b6040516001600160a01b03909116815260200160405180910390a1565b61066381611256565b6007546001600160a01b036101009091041633146106245760405162461bcd60e51b815260206004820181905260248201527f4f776e61626c653a2063616c6c6572206973206e6f7420746865206f776e6572604482015260640161051f565b6000610a7e836001600160a01b038416611296565b6001600160a01b03811660009081526001830160205260408120541515610a7e565b600780546001600160a01b03838116610100818102610100600160a81b031985161790945560405193909204169182907f8be0079c531659141344cd1fd0a4f28419497f9722a3daafe3b4186f6b6457e090600090a35050565b610eac611389565b6007805460ff191660011790557f62e78cea01bee320cd4e420270b5ea74000d11b0c9f74754ebdbfc544b05a258610d8d3390565b816001600160a01b0316836001600160a01b03161415610f435760405162461bcd60e51b815260206004820152601960248201527f4552433732313a20617070726f766520746f2063616c6c657200000000000000604482015260640161051f565b6001600160a01b03838116600081815260056020908152604080832094871680845294825291829020805460ff191686151590811790915591519182527f17307eab39ab6107e8899845ad3d59bd9653f200f220920489ca2b5937696c31910160405180910390a3505050565b6000610a7e83836113cf565b610fc7848484610bb1565b610fd3848484846113f9565b6108e45760405162461bcd60e51b815260040161051f90611d8c565b60006103eb825490565b606061100482610a85565b6000828152600660205260408120805461101d90611c87565b80601f016020809104026020016040519081016040528092919081815260200182805461104990611c87565b80156110965780601f1061106b57610100808354040283529160200191611096565b820191906000526020600020905b81548152906001019060200180831161107957829003601f168201915b5050505050905060006110b460408051602081019091526000815290565b90508051600014156110c7575092915050565b8151156110f95780826040516020016110e1929190611dde565b60405160208183030381529060405292505050919050565b610ba9846114f7565b61089982826040518060200160405280600081525061156a565b6000828152600260205260409020546001600160a01b03166111975760405162461bcd60e51b815260206004820152602e60248201527f45524337323155524953746f726167653a2055524920736574206f66206e6f6e60448201526d32bc34b9ba32b73a103a37b5b2b760911b606482015260840161051f565b600082815260066020908152604090912082516105c092840190611890565b60008181526001830160205260408120546111fd575081546001818101845560008481526020808220909301849055845484825282860190935260409020919091556103eb565b5060006103eb565b6105c0611389565b60075460ff166106245760405162461bcd60e51b815260206004820152601460248201527314185d5cd8589b194e881b9bdd081c185d5cd95960621b604482015260640161051f565b61125f8161159d565b6000818152600660205260409020805461127890611c87565b15905061066357600081815260066020526040812061066391611914565b6000818152600183016020526040812054801561137f5760006112ba600183611d5d565b85549091506000906112ce90600190611d5d565b90508181146113335760008660000182815481106112ee576112ee611e0d565b906000526020600020015490508087600001848154811061131157611311611e0d565b6000918252602080832090910192909255918252600188019052604090208390555b855486908061134457611344611e23565b6001900381819060005260206000200160009055905585600101600086815260200190815260200160002060009055600193505050506103eb565b60009150506103eb565b60075460ff16156106245760405162461bcd60e51b815260206004820152601060248201526f14185d5cd8589b194e881c185d5cd95960821b604482015260640161051f565b60008260000182815481106113e6576113e6611e0d565b9060005260206000200154905092915050565b60006001600160a01b0384163b156114ec57604051630a85bd0160e11b81526001600160a01b0385169063150b7a029061143d903390899088908890600401611e39565b6020604051808303816000875af1925050508015611478575060408051601f3d908101601f1916820190925261147591810190611e76565b60015b6114d2573d8080156114a6576040519150601f19603f3d011682016040523d82523d6000602084013e6114ab565b606091505b5080516114ca5760405162461bcd60e51b815260040161051f90611d8c565b805181602001fd5b6001600160e01b031916630a85bd0160e11b149050610ba9565b506001949350505050565b606061150282610a85565b600061151960408051602081019091526000815290565b905060008151116115395760405180602001604052806000815250610a7e565b8061154384611644565b604051602001611554929190611dde565b6040516020818303038152906040529392505050565b6115748383611742565b61158160008484846113f9565b6105c05760405162461bcd60e51b815260040161051f90611d8c565b60006115a88261074d565b90506115b681600084611205565b6115c1600083610ae4565b6001600160a01b03811660009081526003602052604081208054600192906115ea908490611d5d565b909155505060008281526002602052604080822080546001600160a01b0319169055518391906001600160a01b038416907fddf252ad1be2c89b69c2b068fc378daa952ba7f163c4a11628f55a4df523b3ef908390a45050565b6060816116685750506040805180820190915260018152600360fc1b602082015290565b8160005b8115611692578061167c81611e93565b915061168b9050600a83611ec4565b915061166c565b60008167ffffffffffffffff8111156116ad576116ad611aea565b6040519080825280601f01601f1916602001820160405280156116d7576020820181803683370190505b5090505b8415610ba9576116ec600183611d5d565b91506116f9600a86611ed8565b611704906030611d74565b60f81b81838151811061171957611719611e0d565b60200101906001600160f81b031916908160001a90535061173b600a86611ec4565b94506116db565b6001600160a01b0382166117985760405162461bcd60e51b815260206004820181905260248201527f4552433732313a206d696e7420746f20746865207a65726f2061646472657373604482015260640161051f565b6000818152600260205260409020546001600160a01b0316156117fd5760405162461bcd60e51b815260206004820152601c60248201527f4552433732313a20746f6b656e20616c7265616479206d696e74656400000000604482015260640161051f565b61180960008383611205565b6001600160a01b0382166000908152600360205260408120805460019290611832908490611d74565b909155505060008181526002602052604080822080546001600160a01b0319166001600160a01b03861690811790915590518392907fddf252ad1be2c89b69c2b068fc378daa952ba7f163c4a11628f55a4df523b3ef908290a45050565b82805461189c90611c87565b90600052602060002090601f0160209004810192826118be5760008555611904565b82601f106118d757805160ff1916838001178555611904565b82800160010185558215611904579182015b828111156119045782518255916020019190600101906118e9565b5061191092915061194a565b5090565b50805461192090611c87565b6000825580601f10611930575050565b601f01602090049060005260206000209081019061066391905b5b80821115611910576000815560010161194b565b6001600160e01b03198116811461066357600080fd5b60006020828403121561198757600080fd5b8135610a7e8161195f565b60005b838110156119ad578181015183820152602001611995565b838111156108e45750506000910152565b600081518084526119d6816020860160208601611992565b601f01601f19169290920160200192915050565b602081526000610a7e60208301846119be565b600060208284031215611a0f57600080fd5b5035919050565b80356001600160a01b038116811461074857600080fd5b60008060408385031215611a4057600080fd5b611a4983611a16565b946020939093013593505050565b600080600060608486031215611a6c57600080fd5b611a7584611a16565b9250611a8360208501611a16565b9150604084013590509250925092565b600060208284031215611aa557600080fd5b610a7e82611a16565b60008060408385031215611ac157600080fd5b611aca83611a16565b915060208301358015158114611adf57600080fd5b809150509250929050565b634e487b7160e01b600052604160045260246000fd5b600067ffffffffffffffff80841115611b1b57611b1b611aea565b604051601f8501601f19908116603f01168101908282118183101715611b4357611b43611aea565b81604052809350858152868686011115611b5c57600080fd5b858560208301376000602087830101525050509392505050565b60008060008060808587031215611b8c57600080fd5b611b9585611a16565b9350611ba360208601611a16565b925060408501359150606085013567ffffffffffffffff811115611bc657600080fd5b8501601f81018713611bd757600080fd5b611be687823560208401611b00565b91505092959194509250565b60008060408385031215611c0557600080fd5b611c0e83611a16565b9150602083013567ffffffffffffffff811115611c2a57600080fd5b8301601f81018513611c3b57600080fd5b611c4a85823560208401611b00565b9150509250929050565b60008060408385031215611c6757600080fd5b611c7083611a16565b9150611c7e60208401611a16565b90509250929050565b600181811c90821680611c9b57607f821691505b60208210811415611cbc57634e487b7160e01b600052602260045260246000fd5b50919050565b6020808252602e908201527f4552433732313a2063616c6c6572206973206e6f7420746f6b656e206f776e6560408201526d1c881b9bdc88185c1c1c9bdd995960921b606082015260800190565b6020808252601a908201527f63616c6c6572206973206e6f7420696e2077686974656c697374000000000000604082015260600190565b634e487b7160e01b600052601160045260246000fd5b600082821015611d6f57611d6f611d47565b500390565b60008219821115611d8757611d87611d47565b500190565b60208082526032908201527f4552433732313a207472616e7366657220746f206e6f6e20455243373231526560408201527131b2b4bb32b91034b6b83632b6b2b73a32b960711b606082015260800190565b60008351611df0818460208801611992565b835190830190611e04818360208801611992565b01949350505050565b634e487b7160e01b600052603260045260246000fd5b634e487b7160e01b600052603160045260246000fd5b6001600160a01b0385811682528416602082015260408101839052608060608201819052600090611e6c908301846119be565b9695505050505050565b600060208284031215611e8857600080fd5b8151610a7e8161195f565b6000600019821415611ea757611ea7611d47565b5060010190565b634e487b7160e01b600052601260045260246000fd5b600082611ed357611ed3611eae565b500490565b600082611ee757611ee7611eae565b50069056fea264697066735822122014a4fbf54202757153be65c447fb61b7c8754ce5ab386b58d266e95c4c8ebd2264736f6c634300080a0033",
  "linkReferences": {},
  "deployedLinkReferences": {}
}