{
  "_format": "hh-sol-artifact-1",
  "contractName": "MyNft",
  "sourceName": "contracts/MyNft.sol",
  "abi": [
    {
      "inputs": [],
      "stateMutability": "nonpayable",
      "type": "constructor"
    },
    {
      "anonymous": false,
      "inputs": [
        {
          "indexed": true,
          "internalType": "address",
          "name": "owner",
          "type": "address"
        },
        {
          "indexed": true,
          "internalType": "address",
          "name": "approved",
          "type": "address"
        },
        {
          "indexed": true,
          "internalType": "uint256",
          "name": "tokenId",
          "type": "uint256"
        }
      ],
      "name": "Approval",
      "type": "event"
    },
    {
      "anonymous": false,
      "inputs": [
        {
          "indexed": true,
          "internalType": "address",
          "name": "owner",
          "type": "address"
        },
        {
          "indexed": true,
          "internalType": "address",
          "name": "operator",
          "type": "address"
        },
        {
          "indexed": false,
          "internalType": "bool",
          "name": "approved",
          "type": "bool"
        }
      ],
      "name": "ApprovalForAll",
      "type": "event"
    },
    {
      "anonymous": false,
      "inputs": [
        {
          "indexed": true,
          "internalType": "address",
          "name": "previousOwner",
          "type": "address"
        },
        {
          "indexed": true,
          "internalType": "address",
          "name": "newOwner",
          "type": "address"
        }
      ],
      "name": "OwnershipTransferred",
      "type": "event"
    },
    {
      "anonymous": false,
      "inputs": [
        {
          "indexed": false,
          "internalType": "address",
          "name": "account",
          "type": "address"
        }
      ],
      "name": "Paused",
      "type": "event"
    },
    {
      "anonymous": false,
      "inputs": [
        {
          "indexed": true,
          "internalType": "address",
          "name": "from",
          "type": "address"
        },
        {
          "indexed": true,
          "internalType": "address",
          "name": "to",
          "type": "address"
        },
        {
          "indexed": true,
          "internalType": "uint256",
          "name": "tokenId",
          "type": "uint256"
        }
      ],
      "name": "Transfer",
      "type": "event"
    },
    {
      "anonymous": false,
      "inputs": [
        {
          "indexed": false,
          "internalType": "address",
          "name": "account",
          "type": "address"
        }
      ],
      "name": "Unpaused",
      "type": "event"
    },
    {
      "inputs": [
        {
          "internalType": "address",
          "name": "_addWhitelist",
          "type": "address"
        }
      ],
      "name": "addWhiteList",
      "outputs": [
        {
          "internalType": "bool",
          "name": "",
          "type": "bool"
        }
      ],
      "stateMutability": "tx",
      "type": "function"
    },
    {
      "inputs": [
        {
          "internalType": "address",
          "name": "to",
          "type": "address"
        },
        {
          "internalType": "uint256",
          "name": "tokenId",
          "type": "uint256"
        }
      ],
      "name": "approve",
      "outputs": [],
      "stateMutability": "tx",
      "type": "function"
    },
    {
      "inputs": [
        {
          "internalType": "address",
          "name": "owner",
          "type": "address"
        }
      ],
      "name": "balanceOf",
      "outputs": [
        {
          "internalType": "uint256",
          "name": "",
          "type": "uint256"
        }
      ],
      "stateMutability": "view",
      "type": "function"
    },
    {
      "inputs": [
        {
          "internalType": "uint256",
          "name": "tokenId",
          "type": "uint256"
        }
      ],
      "name": "burn",
      "outputs": [],
      "stateMutability": "tx",
      "type": "function"
    },
    {
      "inputs": [
        {
          "internalType": "address",
          "name": "_delWhiteList",
          "type": "address"
        }
      ],
      "name": "delWhiteList",
      "outputs": [
        {
          "internalType": "bool",
          "name": "",
          "type": "bool"
        }
      ],
      "stateMutability": "tx",
      "type": "function"
    },
    {
      "inputs": [
        {
          "internalType": "uint256",
          "name": "tokenId",
          "type": "uint256"
        }
      ],
      "name": "getApproved",
      "outputs": [
        {
          "internalType": "address",
          "name": "",
          "type": "address"
        }
      ],
      "stateMutability": "view",
      "type": "function"
    },
    {
      "inputs": [
        {
          "internalType": "uint256",
          "name": "_index",
          "type": "uint256"
        }
      ],
      "name": "getWhiteList",
      "outputs": [
        {
          "internalType": "address",
          "name": "",
          "type": "address"
        }
      ],
      "stateMutability": "view",
      "type": "function"
    },
    {
      "inputs": [],
      "name": "getWhiteListLength",
      "outputs": [
        {
          "internalType": "uint256",
          "name": "",
          "type": "uint256"
        }
      ],
      "stateMutability": "view",
      "type": "function"
    },
    {
      "inputs": [
        {
          "internalType": "address",
          "name": "account",
          "type": "address"
        }
      ],
      "name": "inWhiteList",
      "outputs": [
        {
          "internalType": "bool",
          "name": "",
          "type": "bool"
        }
      ],
      "stateMutability": "view",
      "type": "function"
    },
    {
      "inputs": [
        {
          "internalType": "address",
          "name": "owner",
          "type": "address"
        },
        {
          "internalType": "address",
          "name": "operator",
          "type": "address"
        }
      ],
      "name": "isApprovedForAll",
      "outputs": [
        {
          "internalType": "bool",
          "name": "",
          "type": "bool"
        }
      ],
      "stateMutability": "view",
      "type": "function"
    },
    {
      "inputs": [],
      "name": "name",
      "outputs": [
        {
          "internalType": "string",
          "name": "",
          "type": "string"
        }
      ],
      "stateMutability": "view",
      "type": "function"
    },
    {
      "inputs": [],
      "name": "owner",
      "outputs": [
        {
          "internalType": "address",
          "name": "",
          "type": "address"
        }
      ],
      "stateMutability": "view",
      "type": "function"
    },
    {
      "inputs": [
        {
          "internalType": "uint256",
          "name": "tokenId",
          "type": "uint256"
        }
      ],
      "name": "ownerOf",
      "outputs": [
        {
          "internalType": "address",
          "name": "",
          "type": "address"
        }
      ],
      "stateMutability": "view",
      "type": "function"
    },
    {
      "inputs": [],
      "name": "pause",
      "outputs": [],
      "stateMutability": "nonpayable",
      "type": "function"
    },
    {
      "inputs": [],
      "name": "paused",
      "outputs": [
        {
          "internalType": "bool",
          "name": "",
          "type": "bool"
        }
      ],
      "stateMutability": "view",
      "type": "function"
    },
    {
      "inputs": [],
      "name": "renounceOwnership",
      "outputs": [],
      "stateMutability": "nonpayable",
      "type": "function"
    },
    {
      "inputs": [
        {
          "internalType": "address",
          "name": "to",
          "type": "address"
        },
        {
          "internalType": "uint256",
          "name": "tokenId",
          "type": "uint256"
        },
        {
          "internalType": "string",
          "name": "uri",
          "type": "string"
        }
      ],
      "name": "safeMint",
      "outputs": [],
      "stateMutability": "tx",
      "type": "function"
    },
    {
      "inputs": [
        {
          "internalType": "address",
          "name": "from",
          "type": "address"
        },
        {
          "internalType": "address",
          "name": "to",
          "type": "address"
        },
        {
          "internalType": "uint256",
          "name": "tokenId",
          "type": "uint256"
        }
      ],
      "name": "safeTransfer",
      "outputs": [],
      "stateMutability": "tx",
      "type": "function"
    },
    {
      "inputs": [
        {
          "internalType": "address",
          "name": "from",
          "type": "address"
        },
        {
          "internalType": "address",
          "name": "to",
          "type": "address"
        },
        {
          "internalType": "uint256",
          "name": "tokenId",
          "type": "uint256"
        }
      ],
      "name": "safeTransferFrom",
      "outputs": [],
      "stateMutability": "nonpayable",
      "type": "function"
    },
    {
      "inputs": [
        {
          "internalType": "address",
          "name": "from",
          "type": "address"
        },
        {
          "internalType": "address",
          "name": "to",
          "type": "address"
        },
        {
          "internalType": "uint256",
          "name": "tokenId",
          "type": "uint256"
        },
        {
          "internalType": "bytes",
          "name": "data",
          "type": "bytes"
        }
      ],
      "name": "safeTransferFrom",
      "outputs": [],
      "stateMutability": "tx",
      "type": "function"
    },
    {
      "inputs": [
        {
          "internalType": "address",
          "name": "operator",
          "type": "address"
        },
        {
          "internalType": "bool",
          "name": "approved",
          "type": "bool"
        }
      ],
      "name": "setApprovalForAll",
      "outputs": [],
      "stateMutability": "tx",
      "type": "function"
    },
    {
      "inputs": [
        {
          "internalType": "bytes4",
          "name": "interfaceId",
          "type": "bytes4"
        }
      ],
      "name": "supportsInterface",
      "outputs": [
        {
          "internalType": "bool",
          "name": "",
          "type": "bool"
        }
      ],
      "stateMutability": "view",
      "type": "function"
    },
    {
      "inputs": [],
      "name": "symbol",
      "outputs": [
        {
          "internalType": "string",
          "name": "",
          "type": "string"
        }
      ],
      "stateMutability": "view",
      "type": "function"
    },
    {
      "inputs": [
        {
          "internalType": "uint256",
          "name": "tokenId",
          "type": "uint256"
        }
      ],
      "name": "tokenURI",
      "outputs": [
        {
          "internalType": "string",
          "name": "",
          "type": "string"
        }
      ],
      "stateMutability": "view",
      "type": "function"
    },
    {
      "inputs": [
        {
          "internalType": "address",
          "name": "from",
          "type": "address"
        },
        {
          "internalType": "address",
          "name": "to",
          "type": "address"
        },
        {
          "internalType": "uint256",
          "name": "tokenId",
          "type": "uint256"
        }
      ],
      "name": "transferFrom",
      "outputs": [],
      "stateMutability": "nonpayable",
      "type": "function"
    },
    {
      "inputs": [
        {
          "internalType": "address",
          "name": "newOwner",
          "type": "address"
        }
      ],
      "name": "transferOwnership",
      "outputs": [],
      "stateMutability": "nonpayable",
      "type": "function"
    },
    {
      "inputs": [],
      "name": "unpause",
      "outputs": [],
      "stateMutability": "nonpayable",
      "type": "function"
    }
  ],
  "bytecode": "0x60806040523480156200001157600080fd5b50604080518082018252600781526626bcaa37b5b2b760c91b6020808301918252835180850190945260038452624d544b60e81b9084015281519192916200005c9160009162000250565b5080516200007290600190602084019062000250565b50506007805460ff19169055506200008a336200009c565b6200009533620000f6565b5062000333565b600780546001600160a01b03838116610100818102610100600160a81b031985161790945560405193909204169182907f8be0079c531659141344cd1fd0a4f28419497f9722a3daafe3b4186f6b6457e090600090a35050565b6000620001026200017c565b6001600160a01b0382166200015e5760405162461bcd60e51b815260206004820152601e60248201527f5f6164644d696e74657220697320746865207a65726f2061646472657373000060448201526064015b60405180910390fd5b62000176600983620001e060201b62000a4e1760201c565b92915050565b6007546001600160a01b03610100909104163314620001de5760405162461bcd60e51b815260206004820181905260248201527f4f776e61626c653a2063616c6c6572206973206e6f7420746865206f776e6572604482015260640162000155565b565b6000620001f7836001600160a01b038416620001fe565b9392505050565b6000818152600183016020526040812054620002475750815460018181018455600084815260208082209093018490558454848252828601909352604090209190915562000176565b50600062000176565b8280546200025e90620002f6565b90600052602060002090601f016020900481019282620002825760008555620002cd565b82601f106200029d57805160ff1916838001178555620002cd565b82800160010185558215620002cd579182015b82811115620002cd578251825591602001919060010190620002b0565b50620002db929150620002df565b5090565b5b80821115620002db5760008155600101620002e0565b600181811c908216806200030b57607f821691505b602082108114156200032d57634e487b7160e01b600052602260045260246000fd5b50919050565b611f1080620003436000396000f3fe608060405234801561001057600080fd5b50600436106101a95760003560e01c8063715018a6116100f9578063bb72ce4211610097578063d1660f9911610071578063d1660f9914610246578063e7cd4a0414610366578063e985e9c514610379578063f2fde38b1461038c57600080fd5b8063bb72ce4214610338578063c87b56dd14610340578063cd279c7c1461035357600080fd5b806395d89b41116100d357806395d89b41146102f7578063a22cb465146102ff578063aa44a6b514610312578063b88d4fde1461032557600080fd5b8063715018a6146102d15780638456cb59146102d95780638da5cb5b146102e157600080fd5b806342842e0e11610166578063605e5ee111610140578063605e5ee1146102775780636352211e1461028a57806369e0e3461461029d57806370a08231146102b057600080fd5b806342842e0e1461024657806342966c68146102595780635c975abb1461026c57600080fd5b806301ffc9a7146101ae57806306fdde03146101d6578063081812fc146101eb578063095ea7b31461021657806323b872dd1461022b5780633f4ba83a1461023e575b600080fd5b6101c16101bc36600461195a565b61039f565b60405190151581526020015b60405180910390f35b6101de6103f1565b6040516101cd91906119cf565b6101fe6101f93660046119e2565b610483565b6040516001600160a01b0390911681526020016101cd565b610229610224366004611a12565b6104aa565b005b610229610239366004611a3c565b6105c5565b6102296105f7565b610229610254366004611a3c565b610626565b6102296102673660046119e2565b610641565b60075460ff166101c1565b6101c1610285366004611a78565b6106dd565b6101fe6102983660046119e2565b61074d565b6101c16102ab366004611a78565b6107ad565b6102c36102be366004611a78565b6107ba565b6040519081526020016101cd565b610229610840565b610229610852565b60075461010090046001600160a01b03166101fe565b6101de61087f565b61022961030d366004611a93565b61088e565b6101fe6103203660046119e2565b61089d565b610229610333366004611b5b565b6108b2565b6102c36108ea565b6101de61034e3660046119e2565b6108fb565b610229610361366004611bd7565b610906565b6101c1610374366004611a78565b61093f565b6101c1610387366004611c42565b6109aa565b61022961039a366004611a78565b6109d8565b60006001600160e01b031982166380ac58cd60e01b14806103d057506001600160e01b03198216635b5e139f60e01b145b806103eb57506301ffc9a760e01b6001600160e01b03198316145b92915050565b60606000805461040090611c75565b80601f016020809104026020016040519081016040528092919081815260200182805461042c90611c75565b80156104795780601f1061044e57610100808354040283529160200191610479565b820191906000526020600020905b81548152906001019060200180831161045c57829003601f168201915b5050505050905090565b600061048e82610a6a565b506000908152600460205260409020546001600160a01b031690565b60006104b58261074d565b9050806001600160a01b0316836001600160a01b031614156105285760405162461bcd60e51b815260206004820152602160248201527f4552433732313a20617070726f76616c20746f2063757272656e74206f776e656044820152603960f91b60648201526084015b60405180910390fd5b336001600160a01b0382161480610544575061054481336109aa565b6105b65760405162461bcd60e51b815260206004820152603e60248201527f4552433732313a20617070726f76652063616c6c6572206973206e6f7420746f60448201527f6b656e206f776e6572206e6f7220617070726f76656420666f7220616c6c0000606482015260840161051f565b6105c08383610ac9565b505050565b6105d0335b82610b37565b6105ec5760405162461bcd60e51b815260040161051f90611cb0565b6105c0838383610b96565b610600336107ad565b61061c5760405162461bcd60e51b815260040161051f90611cfe565b610624610d3d565b565b6105c0838383604051806020016040528060008152506108b2565b6007546001600160a01b03610100909104163314156106665761066381610d8f565b50565b61066f336105ca565b6106d45760405162461bcd60e51b815260206004820152603060248201527f4552433732314275726e61626c653a2063616c6c6572206973206e6f74206f7760448201526f1b995c881b9bdc88185c1c1c9bdd995960821b606482015260840161051f565b61066381610d8f565b60006106e7610d98565b6001600160a01b03821661073d5760405162461bcd60e51b815260206004820152601e60248201527f5f64656c4d696e74657220697320746865207a65726f20616464726573730000604482015260640161051f565b6103eb600983610df8565b919050565b6000818152600260205260408120546001600160a01b0316806103eb5760405162461bcd60e51b8152602060048201526018602482015277115490cdcc8c4e881a5b9d985b1a59081d1bdad95b88125160421b604482015260640161051f565b60006103eb600983610e0d565b60006001600160a01b0382166108245760405162461bcd60e51b815260206004820152602960248201527f4552433732313a2061646472657373207a65726f206973206e6f7420612076616044820152683634b21037bbb732b960b91b606482015260840161051f565b506001600160a01b031660009081526003602052604090205490565b610848610d98565b6106246000610e2f565b61085b336107ad565b6108775760405162461bcd60e51b815260040161051f90611cfe565b610624610e89565b60606001805461040090611c75565b610899338383610ec6565b5050565b60006108a7610d98565b6103eb600983610f95565b6108bc3383610b37565b6108d85760405162461bcd60e51b815260040161051f90611cb0565b6108e484848484610fa1565b50505050565b60006108f66009610fd4565b905090565b60606103eb82610fde565b61090f336107ad565b61092b5760405162461bcd60e51b815260040161051f90611cfe565b61093583836110e7565b6105c08282611101565b6000610949610d98565b6001600160a01b03821661099f5760405162461bcd60e51b815260206004820152601e60248201527f5f6164644d696e74657220697320746865207a65726f20616464726573730000604482015260640161051f565b6103eb600983610a4e565b6001600160a01b03918216600090815260056020908152604080832093909416825291909152205460ff1690565b6109e0610d98565b6001600160a01b038116610a455760405162461bcd60e51b815260206004820152602660248201527f4f776e61626c653a206e6577206f776e657220697320746865207a65726f206160448201526564647265737360d01b606482015260840161051f565b61066381610e2f565b6000610a63836001600160a01b03841661119b565b9392505050565b6000818152600260205260409020546001600160a01b03166106635760405162461bcd60e51b8152602060048201526018602482015277115490cdcc8c4e881a5b9d985b1a59081d1bdad95b88125160421b604482015260640161051f565b600081815260046020526040902080546001600160a01b0319166001600160a01b0384169081179091558190610afe8261074d565b6001600160a01b03167f8c5be1e5ebec7d5bd14f71427d1e84f3dd0314c0f7b2291e5b200ac8c7c3b92560405160405180910390a45050565b600080610b438361074d565b9050806001600160a01b0316846001600160a01b03161480610b6a5750610b6a81856109aa565b80610b8e5750836001600160a01b0316610b8384610483565b6001600160a01b0316145b949350505050565b826001600160a01b0316610ba98261074d565b6001600160a01b031614610c0d5760405162461bcd60e51b815260206004820152602560248201527f4552433732313a207472616e736665722066726f6d20696e636f72726563742060448201526437bbb732b960d91b606482015260840161051f565b6001600160a01b038216610c6f5760405162461bcd60e51b8152602060048201526024808201527f4552433732313a207472616e7366657220746f20746865207a65726f206164646044820152637265737360e01b606482015260840161051f565b610c7a8383836111ea565b610c85600082610ac9565b6001600160a01b0383166000908152600360205260408120805460019290610cae908490611d4b565b90915550506001600160a01b0382166000908152600360205260408120805460019290610cdc908490611d62565b909155505060008181526002602052604080822080546001600160a01b0319166001600160a01b0386811691821790925591518493918716917fddf252ad1be2c89b69c2b068fc378daa952ba7f163c4a11628f55a4df523b3ef91a4505050565b610d456111f2565b6007805460ff191690557f5db9ee0a495bf2e6ff9c91a7834c1ba4fdd244a5e8aa4e537bd38aeae4b073aa335b6040516001600160a01b03909116815260200160405180910390a1565b6106638161123b565b6007546001600160a01b036101009091041633146106245760405162461bcd60e51b815260206004820181905260248201527f4f776e61626c653a2063616c6c6572206973206e6f7420746865206f776e6572604482015260640161051f565b6000610a63836001600160a01b03841661127b565b6001600160a01b03811660009081526001830160205260408120541515610a63565b600780546001600160a01b03838116610100818102610100600160a81b031985161790945560405193909204169182907f8be0079c531659141344cd1fd0a4f28419497f9722a3daafe3b4186f6b6457e090600090a35050565b610e9161136e565b6007805460ff191660011790557f62e78cea01bee320cd4e420270b5ea74000d11b0c9f74754ebdbfc544b05a258610d723390565b816001600160a01b0316836001600160a01b03161415610f285760405162461bcd60e51b815260206004820152601960248201527f4552433732313a20617070726f766520746f2063616c6c657200000000000000604482015260640161051f565b6001600160a01b03838116600081815260056020908152604080832094871680845294825291829020805460ff191686151590811790915591519182527f17307eab39ab6107e8899845ad3d59bd9653f200f220920489ca2b5937696c31910160405180910390a3505050565b6000610a6383836113b4565b610fac848484610b96565b610fb8848484846113de565b6108e45760405162461bcd60e51b815260040161051f90611d7a565b60006103eb825490565b6060610fe982610a6a565b6000828152600660205260408120805461100290611c75565b80601f016020809104026020016040519081016040528092919081815260200182805461102e90611c75565b801561107b5780601f106110505761010080835404028352916020019161107b565b820191906000526020600020905b81548152906001019060200180831161105e57829003601f168201915b50505050509050600061109960408051602081019091526000815290565b90508051600014156110ac575092915050565b8151156110de5780826040516020016110c6929190611dcc565b60405160208183030381529060405292505050919050565b610b8e846114dc565b61089982826040518060200160405280600081525061154f565b6000828152600260205260409020546001600160a01b031661117c5760405162461bcd60e51b815260206004820152602e60248201527f45524337323155524953746f726167653a2055524920736574206f66206e6f6e60448201526d32bc34b9ba32b73a103a37b5b2b760911b606482015260840161051f565b600082815260066020908152604090912082516105c092840190611875565b60008181526001830160205260408120546111e2575081546001818101845560008481526020808220909301849055845484825282860190935260409020919091556103eb565b5060006103eb565b6105c061136e565b60075460ff166106245760405162461bcd60e51b815260206004820152601460248201527314185d5cd8589b194e881b9bdd081c185d5cd95960621b604482015260640161051f565b61124481611582565b6000818152600660205260409020805461125d90611c75565b159050610663576000818152600660205260408120610663916118f9565b6000818152600183016020526040812054801561136457600061129f600183611d4b565b85549091506000906112b390600190611d4b565b90508181146113185760008660000182815481106112d3576112d3611dfb565b90600052602060002001549050808760000184815481106112f6576112f6611dfb565b6000918252602080832090910192909255918252600188019052604090208390555b855486908061132957611329611e11565b6001900381819060005260206000200160009055905585600101600086815260200190815260200160002060009055600193505050506103eb565b60009150506103eb565b60075460ff16156106245760405162461bcd60e51b815260206004820152601060248201526f14185d5cd8589b194e881c185d5cd95960821b604482015260640161051f565b60008260000182815481106113cb576113cb611dfb565b9060005260206000200154905092915050565b60006001600160a01b0384163b156114d157604051630a85bd0160e11b81526001600160a01b0385169063150b7a0290611422903390899088908890600401611e27565b6020604051808303816000875af192505050801561145d575060408051601f3d908101601f1916820190925261145a91810190611e64565b60015b6114b7573d80801561148b576040519150601f19603f3d011682016040523d82523d6000602084013e611490565b606091505b5080516114af5760405162461bcd60e51b815260040161051f90611d7a565b805181602001fd5b6001600160e01b031916630a85bd0160e11b149050610b8e565b506001949350505050565b60606114e782610a6a565b60006114fe60408051602081019091526000815290565b9050600081511161151e5760405180602001604052806000815250610a63565b8061152884611629565b604051602001611539929190611dcc565b6040516020818303038152906040529392505050565b6115598383611727565b61156660008484846113de565b6105c05760405162461bcd60e51b815260040161051f90611d7a565b600061158d8261074d565b905061159b816000846111ea565b6115a6600083610ac9565b6001600160a01b03811660009081526003602052604081208054600192906115cf908490611d4b565b909155505060008281526002602052604080822080546001600160a01b0319169055518391906001600160a01b038416907fddf252ad1be2c89b69c2b068fc378daa952ba7f163c4a11628f55a4df523b3ef908390a45050565b60608161164d5750506040805180820190915260018152600360fc1b602082015290565b8160005b8115611677578061166181611e81565b91506116709050600a83611eb2565b9150611651565b60008167ffffffffffffffff81111561169257611692611acf565b6040519080825280601f01601f1916602001820160405280156116bc576020820181803683370190505b5090505b8415610b8e576116d1600183611d4b565b91506116de600a86611ec6565b6116e9906030611d62565b60f81b8183815181106116fe576116fe611dfb565b60200101906001600160f81b031916908160001a905350611720600a86611eb2565b94506116c0565b6001600160a01b03821661177d5760405162461bcd60e51b815260206004820181905260248201527f4552433732313a206d696e7420746f20746865207a65726f2061646472657373604482015260640161051f565b6000818152600260205260409020546001600160a01b0316156117e25760405162461bcd60e51b815260206004820152601c60248201527f4552433732313a20746f6b656e20616c7265616479206d696e74656400000000604482015260640161051f565b6117ee600083836111ea565b6001600160a01b0382166000908152600360205260408120805460019290611817908490611d62565b909155505060008181526002602052604080822080546001600160a01b0319166001600160a01b03861690811790915590518392907fddf252ad1be2c89b69c2b068fc378daa952ba7f163c4a11628f55a4df523b3ef908290a45050565b82805461188190611c75565b90600052602060002090601f0160209004810192826118a357600085556118e9565b82601f106118bc57805160ff19168380011785556118e9565b828001600101855582156118e9579182015b828111156118e95782518255916020019190600101906118ce565b506118f592915061192f565b5090565b50805461190590611c75565b6000825580601f10611915575050565b601f01602090049060005260206000209081019061066391905b5b808211156118f55760008155600101611930565b6001600160e01b03198116811461066357600080fd5b60006020828403121561196c57600080fd5b8135610a6381611944565b60005b8381101561199257818101518382015260200161197a565b838111156108e45750506000910152565b600081518084526119bb816020860160208601611977565b601f01601f19169290920160200192915050565b602081526000610a6360208301846119a3565b6000602082840312156119f457600080fd5b5035919050565b80356001600160a01b038116811461074857600080fd5b60008060408385031215611a2557600080fd5b611a2e836119fb565b946020939093013593505050565b600080600060608486031215611a5157600080fd5b611a5a846119fb565b9250611a68602085016119fb565b9150604084013590509250925092565b600060208284031215611a8a57600080fd5b610a63826119fb565b60008060408385031215611aa657600080fd5b611aaf836119fb565b915060208301358015158114611ac457600080fd5b809150509250929050565b634e487b7160e01b600052604160045260246000fd5b600067ffffffffffffffff80841115611b0057611b00611acf565b604051601f8501601f19908116603f01168101908282118183101715611b2857611b28611acf565b81604052809350858152868686011115611b4157600080fd5b858560208301376000602087830101525050509392505050565b60008060008060808587031215611b7157600080fd5b611b7a856119fb565b9350611b88602086016119fb565b925060408501359150606085013567ffffffffffffffff811115611bab57600080fd5b8501601f81018713611bbc57600080fd5b611bcb87823560208401611ae5565b91505092959194509250565b600080600060608486031215611bec57600080fd5b611bf5846119fb565b925060208401359150604084013567ffffffffffffffff811115611c1857600080fd5b8401601f81018613611c2957600080fd5b611c3886823560208401611ae5565b9150509250925092565b60008060408385031215611c5557600080fd5b611c5e836119fb565b9150611c6c602084016119fb565b90509250929050565b600181811c90821680611c8957607f821691505b60208210811415611caa57634e487b7160e01b600052602260045260246000fd5b50919050565b6020808252602e908201527f4552433732313a2063616c6c6572206973206e6f7420746f6b656e206f776e6560408201526d1c881b9bdc88185c1c1c9bdd995960921b606082015260800190565b6020808252601a908201527f63616c6c6572206973206e6f7420696e2077686974656c697374000000000000604082015260600190565b634e487b7160e01b600052601160045260246000fd5b600082821015611d5d57611d5d611d35565b500390565b60008219821115611d7557611d75611d35565b500190565b60208082526032908201527f4552433732313a207472616e7366657220746f206e6f6e20455243373231526560408201527131b2b4bb32b91034b6b83632b6b2b73a32b960711b606082015260800190565b60008351611dde818460208801611977565b835190830190611df2818360208801611977565b01949350505050565b634e487b7160e01b600052603260045260246000fd5b634e487b7160e01b600052603160045260246000fd5b6001600160a01b0385811682528416602082015260408101839052608060608201819052600090611e5a908301846119a3565b9695505050505050565b600060208284031215611e7657600080fd5b8151610a6381611944565b6000600019821415611e9557611e95611d35565b5060010190565b634e487b7160e01b600052601260045260246000fd5b600082611ec157611ec1611e9c565b500490565b600082611ed557611ed5611e9c565b50069056fea26469706673582212202442a64e602c709b51cf3ed2a09cd2bcf623172ef626e73f2275e6fe5b7e891d64736f6c634300080a0033",
  "linkReferences": {},
  "deployedLinkReferences": {}
}